:020000040800F2
:10000000002800208D1400087913000881130008CF
:1000100089130008911300089913000800000000DC
:10002000000000000000000000000000A113000814
:10003000AD13000800000000B9130008C513000844
:10004000D5140008D5140008D5140008D5140008EC
:10005000D5140008D5140008D5140008D5140008DC
:10006000D5140008D5140008D5140008D5140008CC
:10007000D5140008D5140008D5140008D5140008BC
:10008000D5140008D5140008D5140008D5140008AC
:10009000D5140008D5140008D5140008D51400089C
:1000A000D5140008D5140008D5140008D51400088C
:1000B000D1130008D514000800000000D514000872
:1000C000D51400080000000000000000D51400084E
:1000D00000000000D5140008D5140008000000003E
:1000E000D5140008D5140008D5140008000000003D
:1000F0000000000000000000000000000000000000
:0C01000000000000000000005FF808F1A3
:10010C0010B5054C237833B9044B13B10448AFF345
:10011C0000800123237010BD80000020000000002F
:10012C000C2B000808B5034B1BB103490348AFF374
:10013C00008008BD00000000840000200C2B00088B
:10014C0080B582B000AF78607B68092B00F28081AB
:10015C0001A252F823F000BF8D010008D501000860
:10016C001D02000865020008AD020008F502000837
:10017C003D03000885030008CD03000815040008A2
:10018C0000220121B44801F0A4FC00220221B24853
:10019C0001F09FFC00220421AF4801F09AFC0022E0
:1001AC000821AD4801F095FC00221021AA4801F06D
:1001BC0090FC00222021A84801F08BFC0122402158
:1001CC00A54801F086FC43E101220121A24801F07F
:1001DC0080FC00220221A04801F07BFC00220421BB
:1001EC009D4801F076FC012208219B4801F071FC2E
:1001FC0001221021984801F06CFC01222021964824
:10020C0001F067FC01224021934801F062FC1FE1E0
:10021C0000220121904801F05CFC002202218E4852
:10022C0001F057FC012204218B4801F052FC002202
:10023C000821894801F04DFC00221021864801F06C
:10024C0048FC01222021844801F043FC002240217B
:10025C00814801F03EFCFBE0002201217E4801F0C8
:10026C0038FC002202217C4801F033FC00220421DE
:10027C00794801F02EFC00220821774801F029FC76
:10028C0001221021744801F024FC01222021724823
:10029C0001F01FFC002240216F4801F01AFCD7E04E
:1002AC00012201216C4801F014FC002202216A4851
:1002BC0001F00FFC00220421674801F00AFC012226
:1002CC000821654801F005FC01221021624801F06B
:1002DC0000FC00222021604801F0FBFB00224021A1
:1002EC005D4801F0F6FBB3E0002201215A4801F011
:1002FC00F0FB01220221584801F0EBFB0022042103
:10030C00554801F0E6FB00220821534801F0E1FBBF
:10031C0001221021504801F0DCFB002220214E4824
:10032C0001F0D7FB002240214B4801F0D2FB8FE0BB
:10033C0000220121484801F0CCFB01220221464851
:10034C0001F0C7FB00220421434801F0C2FB00224C
:10035C000821414801F0BDFB002210213E4801F06C
:10036C00B8FB002220213C4801F0B3FB00224021C5
:10037C00394801F0AEFB6BE000220121364801F058
:10038C00A8FB00220221344801F0A3FB0022042127
:10039C00314801F09EFB012208212F4801F099FB06
:1003AC00012210212C4801F094FB012220212A4823
:1003BC0001F08FFB01224021274801F08AFB47E026
:1003CC0000220121244801F084FB00220221224852
:1003DC0001F07FFB002204211F4801F07AFB002270
:1003EC0008211D4801F075FB002210211A4801F06C
:1003FC0070FB00222021184801F06BFB00224021E9
:10040C00154801F066FB23E000220121124801F09F
:10041C0060FB00220221104801F05BFB002204214A
:10042C000D4801F056FB002208210B4801F051FB4E
:10043C0001221021084801F04CFB00222021064823
:10044C0001F047FB00224021034801F042FB00BFB2
:10045C0000BF0837BD4680BD000C014080B582B09E
:10046C0000AF78607B68032B7ED801A252F823F092
:10047C008D040008C7040008010500083B050008AE
:10048C003B4B1B681846FFF75BFE00228021394866
:10049C0001F01FFB01224FF48071364801F019FB6B
:1004AC0001224FF40071334801F013FB01224FF489
:1004BC008061304801F00DFB56E02D4B5B6818460F
:1004CC00FFF73EFE012280212A4801F002FB0022A8
:1004DC004FF48071274801F0FCFA01224FF40071AF
:1004EC00244801F0F6FA01224FF48061214801F012
:1004FC00F0FA39E01E4B9B681846FFF721FE0122EB
:10050C0080211C4801F0E5FA01224FF48071194852
:10051C0001F0DFFA00224FF40071164801F0D9FA0D
:10052C0001224FF48061134801F0D3FA1CE0104B08
:10053C00DB681846FFF704FE012280210D4801F00C
:10054C00C8FA01224FF480710A4801F0C2FA012264
:10055C004FF40071074801F0BCFA00224FF480619F
:10056C00044801F0B6FA00BF00BF0837BD4680BD95
:10057C0000000020000C014080B483B000AF786014
:10058C00094A7B6852F82330012B06D1064A7B6856
:10059C00002142F82310012300E0002318460C37F9
:1005AC00BD4680BC704700BFA000002080B582B063
:1005BC0000AF00237B607BE0424A7B6852F823202B
:1005CC0041497B6841F82320404A7B6852F823203C
:1005DC003C497B6841F823204FF400513C4801F022
:1005EC0061FA03461A46394B1A604FF48041384879
:1005FC0001F058FA03461A46344B5A604FF4004146
:10060C00334801F04FFA03461A46304B9A602D4A94
:10061C007B6852F823202D497B6851F823309A428D
:10062C0043D1284A7B6852F8232027497B6851F82C
:10063C0023309A4239D1244A7B6852F82320254929
:10064C007B6851F823309A4217D01F4A7B6852F8C6
:10065C00232020497B6841F823201E4A7B6852F8EE
:10066C002330002B21D11C4B4FF4FA721A601B4A19
:10067C007B68012142F8231017E0174B1B68013BE4
:10068C00154A1360144B1B68002B0ED1124B4FF400
:10069C00FA721A600F4A7B6852F82330002B04D18F
:1006AC000E4A7B68012142F823107B6801337B6082
:1006BC0005227B689342FFF67FAF00BF00BF08376F
:1006CC00BD4680BD24000020380000201000002012
:1006DC00000801404C00002060000020A000002019
:1006EC0080B500AFA04B1B680D2B00F2B18001A2AE
:1006FC0052F823F0390700085D0800085D0800086F
:10070C005D0800085D0800085D0800085D08000829
:10071C005D0800085D0800085D0800085D08000819
:10072C006D070008FD0700082D08000800F0F2FB1B
:10073C008E4B1B684FF47A7202FB03F319460120AF
:10074C0000F050FE884B0B221A60884B1B68884ABD
:10075C001360884B01221A60864B01221A617EE0DD
:10076C0000F004FC834B5B68012B10D1824B1B689F
:10077C004FF47A7202FB03F31946012000F032FEAB
:10078C00794B0D221A607C4B1B68794A1360002050
:10079C00FFF7F2FE0346012B0DD1734B15221A60A5
:1007AC00764B1F221A6042F21071012000F01AFEE3
:1007BC006F4B0A221A600120FFF7DEFE0346012B65
:1007CC0048D14FF47A71012000F00CFE664B1F22C9
:1007DC001A606A4B1F221A60654B02221A60634B27
:1007EC001B68674A136000F095FB00F0A9FB31E031
:1007FC0000F0D2FB5F4B5B68012B2DD15B4B1B6870
:10080C004FF47A7202FB03F31946012000F0EAFD63
:10081C00554B0B221A60554B1B68554A13601BE055
:10082C0000F0D0FB534B5B68012B17D1554B1B6869
:10083C004FF47A7202FB03F31946012000F0D2FD4B
:10084C00494B0C221A604F4B1B68494A136005E058
:10085C0000BF04E000BF02E000BF00E000BF474B58
:10086C001B680D2B7AD801A252F823F0B1080008AE
:10087C006909000869090008690900086909000884
:10088C006909000869090008690900086909000874
:10089C006909000869090008D90800080909000855
:1008AC003909000800F04CFB344B0D221A60324B16
:1008BC001B68334A1360304B1B684FF47A7202FB8F
:1008CC0003F31946022000F08DFD5EE000F090FB72
:1008DC00284B9B68012B43D1274B1B684FF47A7232
:1008EC0002FB03F31946022000F07CFD234B0D2282
:1008FC001A60214B1B68224A136031E000F08EFB1A
:10090C001C4B9B68012B2DD1184B1B684FF47A7232
:10091C0002FB03F31946022000F064FD174B0B2277
:10092C001A60124B1B68164A13601BE000F08CFB1C
:10093C00104B9B68012B27D1124B1B684FF47A721A
:10094C0002FB03F31946022000F04CFD0B4B0C226A
:10095C001A600C4B1B680A4A136015E000BF14E0C8
:10096C0000BF12E000BF10E0B400002064000020C3
:10097C00BC000020180100206C000020B8000020F2
:10098C00C00000206800002000BF374B1B68012B03
:10099C004ED14FF47A71002000F024FD80213348B1
:1009AC0001F0AFF8324B1B681E3B1D2B04D9314BA9
:1009BC001B68013B2F4A13602F4B1B681E3B1D2BE2
:1009CC0004D92E4B1B68013B2C4A1360294B1B6826
:1009DC002B4A82FB03129210DB17D31A294A13609D
:1009EC00244B1968264B83FB01239A10CB17D21A80
:1009FC0013469B0013445B00CA1A224B5A601F4BD0
:100A0C001B681F4A82FB03129210DB17D31A1D4A74
:100A1C0093601A4B19681A4B83FB01239A10CB175E
:100A2C00D21A13469B0013445B00CA1A154BDA60AA
:100A3C000D4B1B69012B14D17D21042000F0D2FC3D
:100A4C00114B1B685A1C10490A601846FFF706FD2B
:100A5C000D4B1A680D4B1B689A4202D10A4B0022AF
:100A6C001A6000BF80BD00BF1801002000080140C3
:100A7C00B4000020BC000020B8000020C000002002
:100A8C0067666666000000209C000020242B00088E
:100A9C0080B500AF934B1B68153B032B00F21681FE
:100AAC0001A252F823F000BFC50A00084B0B000846
:100ABC00D10B0008550C000800F058FA00F0C4FAED
:100ACC00894B5B68012B24D1884B1B68884A1360C7
:100ADC00884B1B68884A1360824B0B221A60874B29
:100AEC000D221A60804B01221A60804B1B684FF458
:100AFC007A7202FB03F31946012000F073FC7D4B64
:100B0C001B684FF47A7202FB03F31946022000F0C3
:100B1C0069FC0020FFF730FD0346012B40F0D88024
:100B2C00704B16221A60724B0A221A60724B012209
:100B3C001A6042F21071012000F054FCC8E000F081
:100B4C0015FA00F06BFA684B5B68012B24D1674BEC
:100B5C001B68674A13606A4B1B68674A1360614BDA
:100B6C000B221A60654B0C221A605F4B01221A6033
:100B7C005E4B1B684FF47A7202FB03F3194601209B
:100B8C0000F030FC5E4B1B684FF47A7202FB03F3EF
:100B9C001946022000F026FC0020FFF7EDFC03466E
:100BAC00012B40F097804F4B17221A60504B0A22B2
:100BBC001A60514B01221A6042F21071012000F0B0
:100BCC0011FC87E000F0FEF900F012FA464B5B686E
:100BDC00012B24D1474B1B68454A1360434B1B68C0
:100BEC00454A13603F4B0D221A60444B0B221A608E
:100BFC003D4B01221A603F4B1B684FF47A7202FB8B
:100C0C0003F31946012000F0EDFB384B1B684FF441
:100C1C007A7202FB03F31946022000F0E3FB00207A
:100C2C00FFF7AAFC0346012B56D12E4B18221A6053
:100C3C002F4B0A221A60304B01221A6042F21071BB
:100C4C00012000F0CFFB47E000F0A6F900F0D0F94E
:100C5C00254B5B68012B24D1294B1B68244A13605C
:100C6C00224B1B68244A13601E4B0C221A60234B28
:100C7C000B221A601C4B01221A60214B1B684FF48B
:100C8C007A7202FB03F31946012000F0ABFB174B01
:100C9C001B684FF47A7202FB03F31946022000F032
:100CAC00A1FB0020FFF768FC0346012B16D10D4B6E
:100CBC0015221A600E4B0A221A600F4B01221A6081
:100CCC0042F21071012000F08DFB07E000BF06E03E
:100CDC0000BF04E000BF02E000BF00E000BF00BFA7
:100CEC0080BD00BFB400002018010020640000206B
:100CFC00BC0000206C000020C0000020B8000020C8
:100D0C006800002080B500AF764B1B68212B00F0EB
:100D1C008D80212B00F3E4801F2B02D0202B43D09D
:100D2C00DEE0714B5B68012B0CD14FF47A71012022
:100D3C0000F058FB02216D4800F0E3FE10216B48D7
:100D4C0000F0DFFE0120FFF717FC0346012B0DD14D
:100D5C00644B20221A60664B03221A60654B1B6899
:100D6C00654A136000F0D6F800F0EAF80020FFF7AF
:100D7C0003FC0346012B0BD15F4B1B6801335E4A0E
:100D8C0013605D4B1B68632B02DD5B4B01221A6009
:100D9C000220FFF7F1FB0346012B40F09C80564BE1
:100DAC001B68564A136096E04F4B5B68012B0CD1C5
:100DBC004FF47A71012000F015FB04214B4800F030
:100DCC00A0FE2021494800F09CFE0120FFF7D4FB37
:100DDC000346012B0DD1434B21221A60444B0422B4
:100DEC001A60474B1B68444A136000F093F800F0FC
:100DFC00A7F80020FFF7C0FB0346012B0BD13E4B9D
:100E0C001B6801333C4A13603B4B1B68632B02DDB0
:100E1C00394B01221A600220FFF7AEFB0346012B6F
:100E2C005BD1354B1B68374A136056E02E4B5B6821
:100E3C00012B0CD14FF47A71012000F0D3FA082168
:100E4C002A4800F05EFE4021284800F05AFE01209E
:100E5C00FFF792FB0346012B20D12B4B1A68294B31
:100E6C001B681A44254B1B689A420BD1234B1B68F9
:100E7C00264A1360234B1B681E4A1360224B1B68C7
:100E8C001F4A1360174B00221A60214B00221A6074
:100E9C00174B00221A60184B00221A600020FFF733
:100EAC006BFB0346012B0BD1134B1B680133124A0E
:100EBC001360114B1B68632B02DD0F4B01221A6070
:100ECC000220FFF759FB0346012B08D10A4B1B6884
:100EDC000D4A136003E000BF02E000BF00E000BF5A
:100EEC0000BF80BDB40000201801002000080140A4
:100EFC00BC00002068000020C0000020C4000020BE
:100F0C006C000020C8000020CC00002064000020F1
:100F1C00B800002080B500AF00220221074800F085
:100F2C00D8FD00220421054800F0D3FD0022082141
:100F3C00024800F0CEFD00BF80BD00BF000801409C
:100F4C0080B500AF00221021074800F0C2FD00223E
:100F5C002021054800F0BDFD00224021024800F090
:100F6C00B8FD00BF80BD00BF0008014080B500AFD8
:100F7C0001220221074800F0ACFD002204210548A3
:100F8C0000F0A7FD00220821024800F0A2FD00BFDE
:100F9C0080BD00BF0008014080B500AF00220221D7
:100FAC00074800F096FD01220421054800F091FD50
:100FBC0000220821024800F08CFD00BF80BD00BF5C
:100FCC000008014080B500AF00220221074800F064
:100FDC0080FD00220421054800F07BFD0122082140
:100FEC00024800F076FD00BF80BD00BF0008014044
:100FFC0080B500AF01221021074800F06AFD0022E5
:10100C002021054800F065FD00224021024800F037
:10101C0060FD00BF80BD00BF0008014080B500AF7F
:10102C0000221021074800F054FD01222021054820
:10103C0000F04FFD00224021024800F04AFD00BFA5
:10104C0080BD00BF0008014080B500AF0022102118
:10105C00074800F03EFD00222021054800F039FD34
:10106C0001224021024800F034FD00BF80BD00BFCA
:10107C000008014080B500AF00F028FA00F01CF821
:10108C0000F0A2F800F054F8084801F081F9084B80
:10109C0000221A60074B00221A60FFF721FBFFF7B2
:1010AC00F7FCFFF72FFE00BFF7E700BFD0000020D2
:1010BC00B4000020B800002080B590B000AF07F15C
:1010CC00180328220021184601F0EEFC3B1D0022DB
:1010DC001A605A609A60DA601A610223BB610123BC
:1010EC00BB621023FB6200237B6307F118031846D5
:1010FC0000F020FD0346002B01D000F0DBF80F239D
:10110C007B600023BB600023FB6000233B6100235A
:10111C007B613B1D0021184600F08EFF0346002B1F
:10112C0001D000F0C7F800BF4037BD4680BD0000BD
:10113C0080B586B000AF07F1080300221A605A6030
:10114C009A60DA603B4600221A605A601D4B4FF0E1
:10115C0080421A601B4B41F63F725A60194B0022B9
:10116C009A60184B0922DA60164B00221A61154B53
:10117C0000229A61134801F0BBF80346002B01D002
:10118C0000F098F84FF48053BB6007F10803194640
:10119C000C4801F039FA0346002B01D000F08AF814
:1011AC0000233B6000237B603B461946054801F059
:1011BC0011FC0346002B01D000F07CF800BF18375F
:1011CC00BD4680BDD000002080B586B000AF07F1D1
:1011DC00080300221A605A609A60DA602C4B9B69F3
:1011EC002B4A43F008039361294B9B6903F00803D6
:1011FC007B607B68264B9B69254A43F00403936113
:10120C00234B9B6903F004033B603B6800220121E4
:10121C00204800F05EFC0123BB600123FB6000232F
:10122C003B6102237B6107F108031946194800F062
:10123C00BDFA4FF46043BB600023FB6001233B61AC
:10124C0007F108031946144800F0B0FAFE23BB60FE
:10125C000123FB6000233B6102237B6107F1080340
:10126C0019460D4800F0A2FA43F6FF73BB60012348
:10127C00FB6000233B6102237B6107F108031946E5
:10128C00044800F093FA00BF1837BD4680BD00BF7C
:10129C0000100240000C01400008014080B582B0F3
:1012AC0000AF786000F0BCF8FFF780F900BF08379A
:1012BC00BD4680BD80B400AF72B600BF00BFFDE775
:1012CC0080B485B000AF154B9B69144A43F0010301
:1012DC009361124B9B6903F00103BB60BB680F4B1E
:1012EC00DB690E4A43F08053D3610C4BDB6903F08E
:1012FC0080537B607B680A4B5B68FB60FB6823F068
:10130C00E063FB60FB6843F08063FB60044AFB68AE
:10131C00536000BF1437BD4680BC704700100240BC
:10132C000000014080B584B000AF78607B681B681A
:10133C00B3F1804F13D10C4BDB690B4A43F0010323
:10134C00D361094BDB6903F00103FB60FB680022EE
:10135C0000211C2000F0F3F91C2000F00CFA00BF57
:10136C001037BD4680BD00BF0010024080B400AFF6
:10137C0000BFFDE780B400AF00BFFDE780B400AF55
:10138C0000BFFDE780B400AF00BFFDE780B400AF45
:10139C0000BFFDE780B400AF00BFBD4680BC704706
:1013AC0080B400AF00BFBD4680BC704780B400AFB6
:1013BC0000BFBD4680BC704780B500AF00F0CCF8D4
:1013CC0000BF80BD80B500AF024801F02DF800BF12
:1013DC0080BD00BFD000002080B400AF00BFBD4670
:1013EC0080BC704780B483B000AF78603960094A24
:1013FC007B68002142F82310074B1B683A6892FB6C
:10140C00F3F206497B6841F8232000BF0C37BD4638
:10141C0080BC704718010020740000202C010020B3
:10142C0080B483B000AF00237B601CE0124A7B6861
:10143C0052F82330002B13DD0F4A7B6852F823300F
:10144C005A1E0D497B6841F823200B4A7B6852F8E1
:10145C002330002B04DC094A7B68012142F823105D
:10146C007B6801337B607B68042BDFDD00BF00BF32
:10147C000C37BD4680BC70472C01002018010020A1
:10148C00FFF7AAFF0B480C490C4A002302E0D45882
:10149C00C4500433C4188C42F9D3094A094C0023B4
:1014AC0001E013600432A242FBD301F005FBFFF70D
:1014BC00E1FD70470000002080000020542B000844
:1014CC008000002044010020FEE7000080B500AF42
:1014DC00084B1B68074A43F010031360032000F00D
:1014EC0023F90F2000F008F8FFF7EAFE0023184656
:1014FC0080BD00BF0020024080B582B000AF786094
:10150C00124B1A68124B1B7819464FF47A73B3FBC3
:10151C00F1F3B2FBF3F3184600F03BF90346002B52
:10152C0001D001230EE07B680F2B0AD800227968CA
:10153C004FF0FF3000F003F9064A7B68136000237C
:10154C0000E0012318460837BD4680BD700000201E
:10155C007C0000207800002080B400AF054B1B7885
:10156C001A46054B1B681344034A136000BFBD4663
:10157C0080BC70477C0000204001002080B400AF8C
:10158C00024B1B681846BD4680BC704740010020CA
:10159C0080B485B000AF78607B6803F00703FB6014
:1015AC000C4BDB68BB60BA684FF6FF031340BB60A3
:1015BC00FB681A02BB68134343F0BF6343F4003368
:1015CC00BB60044ABB68D36000BF1437BD4680BC07
:1015DC00704700BF00ED00E080B400AF044BDB6847
:1015EC001B0A03F007031846BD4680BC704700BFBA
:1015FC0000ED00E080B483B000AF0346FB7197F9B7
:10160C000730002B0BDBFB7903F01F02064997F91F
:10161C0007305B09012000FA02F241F8232000BFD9
:10162C000C37BD4680BC704700E100E080B483B04D
:10163C0000AF03463960FB7197F90730002B0ADBCA
:10164C003B68DAB20C4997F907301201D2B20B445D
:10165C0083F800230AE03B68DAB20849FB7903F00F
:10166C000F03043B1201D2B20B441A7600BF0C37A5
:10167C00BD4680BC704700BF00E100E000ED00E01B
:10168C0080B489B000AFF860B9607A60FB6803F091
:10169C000703FB61FB69C3F10703042B28BF042379
:1016AC00BB61FB690433062B02D9FB69033B00E0E9
:1016BC0000237B614FF0FF32BB6902FA03F3DA437C
:1016CC00BB681A407B699A404FF0FF317B6901FA85
:1016DC0003F3D9437B680B40134318462437BD46AC
:1016EC0080BC704780B582B000AF78607B68013BEE
:1016FC00B3F1807F01D301230FE00A4A7B68013BE1
:10170C0053600F214FF0FF30FFF790FF054B002285
:10171C009A60044B07221A60002318460837BD460E
:10172C0080BD00BF10E000E080B582B000AF7860F3
:10173C007868FFF72DFF00BF0837BD4680BD80B528
:10174C0086B000AF0346B9607A60FB7300237B61FF
:10175C00FFF742FF78617A68B9687869FFF790FF04
:10176C00024697F90F3011461846FFF75FFF00BF8E
:10177C001837BD4680BD80B582B000AF0346FB7103
:10178C0097F907301846FFF735FF00BF0837BD46FD
:10179C0080BD80B582B000AF78607868FFF7A2FF9B
:1017AC00034618460837BD4680BD000080B48BB098
:1017BC0000AF7860396000237B6200233B6261E1FB
:1017CC0001227B6A02FA03F3FB613B681B68FA692E
:1017DC001340BB61BA69FB699A4240F050813B6887
:1017EC005B68974A93425ED0954A934275D8954A66
:1017FC00934258D0934A93426FD8934A934252D013
:10180C00914A934269D8914A93424CD08F4A934261
:10181C0063D88F4A934246D08D4A93425DD8122B9F
:10182C002AD8122B59D801A252F823F0B318000869
:10183C008D1800089F180008E1180008E718000828
:10184C00E7180008E7180008E7180008E718000870
:10185C00E7180008E7180008E7180008E718000860
:10186C00E7180008E7180008E7180008E718000850
:10187C0095180008A9180008764A934213D02CE05A
:10188C003B68DB683B6229E03B68DB6804333B6206
:10189C0024E03B68DB6808333B621FE03B68DB6895
:1018AC000C333B621AE03B689B68002B02D104238B
:1018BC003B6213E03B689B68012B05D108233B621C
:1018CC007B68FA691A6109E008233B627B68FA6954
:1018DC005A6103E000233B6200E000BFBB69FF2BB1
:1018EC0001D87B6801E07B6804337B61BB69FF2B0B
:1018FC0002D87B6A9B0002E07B6A083B9B003B6141
:10190C007B691A680F213B6901FA03F3DB431A4028
:10191C00396A3B6901FA03F31A437B691A603B6825
:10192C005B6803F08053002B00F0A9804A4B9B6945
:10193C00494A43F001039361474B9B6903F0010350
:10194C00BB60BB68454A7B6A9B08023352F8233064
:10195C00FB607B6A03F003039B000F2202FA03F384
:10196C00DB43FA681340FB607B683D4A93420DD021
:10197C007B683C4A934207D07B683B4A934201D137
:10198C00022304E0032302E0012300E000237A6A2F
:10199C0002F0030292009340FA681343FB602F4954
:1019AC007B6A9B080233FA6841F823203B685B682A
:1019BC0003F48013002B06D02C4B9A682B49BB697F
:1019CC0013438B6006E0294B9A68BB69DB432749BC
:1019DC0013408B603B685B6803F40013002B06D04C
:1019EC00224BDA682149BB691343CB6006E01F4BDD
:1019FC00DA68BB69DB431D491340CB603B685B680D
:101A0C0003F40033002B06D0184B5A681749BB69F6
:101A1C0013434B6006E0154B5A68BB69DB43134913
:101A2C0013404B603B685B6803F48033002B1FD082
:101A3C000E4B1A680D49BB6913430B601FE000BFC6
:101A4C0000003210000031100000221000002110A4
:101A5C0000001210000011100010024000000140A4
:101A6C0000080140000C014000100140000401403E
:101A7C000B4B1A68BB69DB43094913400B607B6A4B
:101A8C0001337B623B681A687B6A22FA03F3002BF2
:101A9C007FF496AE00BF00BF2C37BD4680BC7047AC
:101AAC000004014080B485B000AF78600B467B80A9
:101ABC007B689A687B881340002B02D00123FB7350
:101ACC0001E00023FB73FB7B18461437BD4680BC3A
:101ADC00704780B483B000AF78600B467B801346B0
:101AEC007B707B78002B03D07A887B681A6103E0CB
:101AFC007B881A047B681A6100BF0C37BD4680BC1A
:101B0C00704780B485B000AF78600B467B807B68F3
:101B1C00DB68FB607A88FB6813401A04FB68D943C6
:101B2C007B880B401A437B681A6100BF1437BD4693
:101B3C0080BC704780B586B000AF78607B68002BA6
:101B4C0001D1012372E27B681B6803F00103002BB7
:101B5C0000F08780924B5B6803F00C03042B0CD0D5
:101B6C008F4B5B6803F00C03082B12D18C4B5B681A
:101B7C0003F48033B3F5803F0BD1894B1B6803F41E
:101B8C000033002B6CD07B685B68002B68D1012381
:101B9C004CE27B685B68B3F5803F06D1804B1B68D9
:101BAC007F4A43F4803313602EE07B685B68002B24
:101BBC000CD17B4B1B687A4A23F480331360784B2F
:101BCC001B68774A23F4802313601DE07B685B68F5
:101BDC00B3F5A02F0CD1724B1B68714A43F48023D0
:101BEC0013606F4B1B686E4A43F4803313600BE039
:101BFC006B4B1B686A4A23F480331360684B1B6879
:101C0C00674A23F4802313607B685B68002B13D036
:101C1C00FFF7B4FC386108E0FFF7B0FC02463B6903
:101C2C00D31A642B01D9032300E25D4B1B6803F428
:101C3C000033002BF0D014E0FFF7A0FC386108E073
:101C4C00FFF79CFC02463B69D31A642B01D9032392
:101C5C00ECE1534B1B6803F40033002BF0D100E094
:101C6C0000BF7B681B6803F00203002B63D04C4B56
:101C7C005B6803F00C03002B0BD0494B5B6803F043
:101C8C000C03082B1CD1464B5B6803F48033002BF0
:101C9C0016D1434B1B6803F00203002B05D07B6865
:101CAC001B69012B01D00123C0E13D4B1B6823F0C4
:101CBC00F8027B685B69DB00394913430B603AE03F
:101CCC007B681B69002B20D0364B01221A60FFF772
:101CDC0055FC386108E0FFF751FC02463B69D31A0A
:101CEC00022B01D90323A1E12D4B1B6803F0020346
:101CFC00002BF0D02A4B1B6823F0F8027B685B6941
:101D0C00DB00274913430B6015E0264B00221A60B9
:101D1C00FFF734FC386108E0FFF730FC02463B6902
:101D2C00D31A022B01D9032380E11D4B1B6803F04E
:101D3C000203002BF0D17B681B6803F00803002B17
:101D4C003AD07B689B69002B19D0174B01221A6083
:101D5C00FFF714FC386108E0FFF710FC02463B6902
:101D6C00D31A022B01D9032360E10D4B5B6A03F0FC
:101D7C000203002BF0D0012000F09CFA1CE00A4B6F
:101D8C0000221A60FFF7FAFB38610FE0FFF7F6FB51
:101D9C0002463B69D31A022B08D9032346E100BF44
:101DAC00001002400000424280044242924B5B6AA7
:101DBC0003F00203002BE9D17B681B6803F00403DA
:101DCC00002B00F0A6800023FB758B4BDB6903F026
:101DDC008053002B0DD1884BDB69874A43F080532D
:101DEC00D361854BDB6903F08053BB60BB68012377
:101DFC00FB75824B1B6803F48073002B18D17F4B4F
:101E0C001B687E4A43F480731360FFF7B7FB38619D
:101E1C0008E0FFF7B3FB02463B69D31A642B01D9E8
:101E2C00032303E1754B1B6803F48073002BF0D084
:101E3C007B68DB68012B06D16F4B1B6A6E4A43F043
:101E4C00010313622DE07B68DB68002B0CD16A4B1D
:101E5C001B6A694A23F001031362674B1B6A664ACB
:101E6C0023F0040313621CE07B68DB68052B0CD1A8
:101E7C00614B1B6A604A43F0040313625E4B1B6A9E
:101E8C005D4A43F0010313620BE05B4B1B6A5A4A39
:101E9C0023F001031362584B1B6A574A23F00403C7
:101EAC0013627B68DB68002B15D0FFF767FB38618A
:101EBC000AE0FFF763FB02463B69D31A41F2883212
:101ECC00934201D90323B1E04B4B1B6A03F002038D
:101EDC00002BEED014E0FFF751FB38610AE0FFF75E
:101EEC004DFB02463B69D31A41F28832934201D929
:101EFC0003239BE0404B1B6A03F00203002BEED143
:101F0C00FB7D012B05D13C4BDB693B4A23F0805315
:101F1C00D3617B68DB69002B00F08780364B5B68F4
:101F2C0003F00C03082B61D07B68DB69022B46D1D4
:101F3C00334B00221A60FFF721FB386108E0FFF7F2
:101F4C001DFB02463B69D31A022B01D903236DE01A
:101F5C00294B1B6803F00073002BF0D17B681B6AC4
:101F6C00B3F5803F08D1244B5B6823F400327B68C7
:101F7C009B68214913434B601F4B5B6823F474121D
:101F8C007B68196A7B685B6A0B431B4913434B6084
:101F9C001B4B01221A60FFF7F1FA386108E0FFF7DA
:101FAC00EDFA02463B69D31A022B01D903233DE01B
:101FBC00114B1B6803F00073002BF0D035E0104B75
:101FCC0000221A60FFF7DAFA386108E0FFF7D6FA58
:101FDC0002463B69D31A022B01D9032326E0064B98
:101FEC001B6803F00073002BF0D11EE07B68DB69EB
:101FFC00012B07D1012319E00010024000700040B2
:10200C00600042420B4B5B68FB60FB6803F4803260
:10201C007B681B6A9A4206D1FB6803F470127B68DA
:10202C005B6A9A4201D0012300E00023184618375E
:10203C00BD4680BD0010024080B584B000AF786012
:10204C0039607B68002B01D10123D0E06A4B1B68FF
:10205C0003F007033A689A4210D9674B1B6823F0C8
:10206C00070265493B6813430B60634B1B6803F025
:10207C0007033A689A4201D00123B8E07B681B68D9
:10208C0003F00203002B20D07B681B6803F00403D1
:10209C00002B05D0594B5B68584A43F4E0635360FE
:1020AC007B681B6803F00803002B05D0534B5B685F
:1020BC00524A43F460535360504B5B6823F0F00278
:1020CC007B689B684D4913434B607B681B6803F02E
:1020DC000103002B40D07B685B68012B07D1474B79
:1020EC001B6803F40033002B15D101237FE07B68C0
:1020FC005B68022B07D1414B1B6803F00073002B6C
:10210C0009D1012373E03D4B1B6803F00203002B44
:10211C0001D101236BE0394B5B6823F003027B6830
:10212C005B68364913434B60FFF728FAF8600AE006
:10213C00FFF724FA0246FB68D31A41F28832934225
:10214C0001D9032353E02D4B5B6803F00C027B6831
:10215C005B689B009A42EBD1274B1B6803F007038B
:10216C003A689A4210D2244B1B6823F0070222498A
:10217C003B6813430B60204B1B6803F007033A6862
:10218C009A4201D0012332E07B681B6803F0040300
:10219C00002B08D0194B5B6823F4E0627B68DB688A
:1021AC00164913434B607B681B6803F00803002B34
:1021BC0009D0124B5B6823F460527B681B69DB000F
:1021CC000E4913434B6000F021F802460B4B5B6841
:1021DC001B0903F00F030A49CB5C22FA03F3094AEB
:1021EC001360094B1B681846FFF786F90023184645
:1021FC001037BD4680BD00BF0020024000100240D9
:10220C00282B0008700000207800002080B487B0D4
:10221C0000AF0023FB600023BB6000237B61002325
:10222C007B6000233B611E4B5B68FB60FB6803F02B
:10223C000C03042B02D0082B03D027E0194B3B6175
:10224C0027E0FB689B0C03F00F03174AD35C7B6001
:10225C00FB6803F48033002B10D0114B5B685B0CD4
:10226C0003F00103114AD35CBB607B680D4A03FB8E
:10227C0002F2BB68B2FBF3F37B6104E07B680C4AAF
:10228C0002FB03F37B617B693B6102E0054B3B6125
:10229C0000BF3B6918461C37BD4680BC704700BF69
:1022AC000010024000127A00382B0008482B00085E
:1022BC0000093D0080B485B000AF78600A4B1B6804
:1022CC000A4AA2FB03235B0A7A6802FB03F3FB6056
:1022DC0000BFFB685A1EFA60002BF9D100BF00BF8B
:1022EC001437BD4680BC704770000020D34D62107F
:1022FC0080B582B000AF78607B68002B01D10123E0
:10230C0041E07B6893F83D30DBB2002B06D17B6853
:10231C00002283F83C207868FFF704F87B680222DF
:10232C0083F83D207B681A687B6804331946104695
:10233C0000F056FA7B68012283F846207B68012264
:10234C0083F83E207B68012283F83F207B680122C2
:10235C0083F840207B68012283F841207B680122AE
:10236C0083F842207B68012283F843207B6801229A
:10237C0083F844207B68012283F845207B68012286
:10238C0083F83D20002318460837BD4680BD000069
:10239C0080B485B000AF78607B6893F83D30DBB2D9
:1023AC00012B01D0012335E07B68022283F83D200C
:1023BC007B681B68DA687B681B6842F00102DA6094
:1023CC007B681B68164A934209D07B681B68B3F183
:1023DC00804F04D07B681B68124A934211D17B68F2
:1023EC001B689B6803F00703FB60FB68062B10D08F
:1023FC007B681B681A687B681B6842F001021A60D4
:10240C0007E07B681B681A687B681B6842F0010256
:10241C001A60002318461437BD4680BC704700BFB5
:10242C00002C01400004004080B584B000AF7860FF
:10243C007B681B68DB68FB607B681B681B69BB6087
:10244C00BB6803F00203002B20D0FB6803F00203EF
:10245C00002B1BD07B681B686FF002021A617B6833
:10246C0001221A777B681B689B6903F00303002B1E
:10247C0003D0786800F098F905E0786800F08BF9E3
:10248C00786800F09AF97B6800221A77BB6803F031
:10249C000403002B20D0FB6803F00403002B1BD09B
:1024AC007B681B686FF004021A617B6802221A7742
:1024BC007B681B689B6903F44073002B03D078681E
:1024CC0000F072F905E0786800F065F9786800F0C2
:1024DC0074F97B6800221A77BB6803F00803002BA1
:1024EC0020D0FB6803F00803002B1BD07B681B6813
:1024FC006FF008021A617B6804221A777B681B68EC
:10250C00DB6903F00303002B03D0786800F04CF96F
:10251C0005E0786800F03FF9786800F04EF97B68C8
:10252C0000221A77BB6803F01003002B20D0FB6845
:10253C0003F01003002B1BD07B681B686FF010029C
:10254C001A617B6808221A777B681B68DB6903F4C5
:10255C004073002B03D0786800F026F905E078680A
:10256C0000F019F9786800F028F97B6800221A77D6
:10257C00BB6803F00103002B0CD0FB6803F00103D4
:10258C00002B07D07B681B686FF001021A6178681A
:10259C00FEF784FEBB6803F08003002B0CD0FB68B5
:1025AC0003F08003002B07D07B681B686FF0800260
:1025BC001A61786800F06FFABB6803F04003002BD7
:1025CC000CD0FB6803F04003002B07D07B681B6822
:1025DC006FF040021A61786800F0F8F8BB6803F0FD
:1025EC002003002B0CD0FB6803F02003002B07D03A
:1025FC007B681B686FF020021A61786800F042FA61
:10260C0000BF1037BD4680BD80B584B000AF786088
:10261C0039600023FB737B6893F83C30012B01D1AC
:10262C000223B4E07B68012283F83C207B68022201
:10263C0083F83D207B681B689B68BB60BB6823F0FC
:10264C007703BB60BB6823F47F43BB607B681B686C
:10265C00BA689A603B681B68B3F5005F3ED0B3F56F
:10266C00005F00F28780B3F5805F00F08680B3F5E1
:10267C00805F7FD8702B1AD0702B7BD8602B50D0FA
:10268C00602B77D8502B3CD0502B73D8402B58D084
:10269C00402B6FD8302B64D0302B6BD8202B60D0D4
:1026AC00202B67D8002B5CD0102B5AD062E07B68B3
:1026BC0018683B6899683B685A683B68DB6800F0AF
:1026CC006AF97B681B689B68BB60BB6843F0770347
:1026DC00BB607B681B68BA689A604FE07B681868BF
:1026EC003B6899683B685A683B68DB6800F053F9B3
:1026FC007B681B689A687B681B6842F480429A600E
:10270C003CE07B6818683B6859683B68DB681A4694
:10271C0000F0CAF87B681B685021184600F021F9BC
:10272C002CE07B6818683B6859683B68DB681A4684
:10273C0000F0E8F87B681B686021184600F011F97E
:10274C001CE07B6818683B6859683B68DB681A4674
:10275C0000F0AAF87B681B684021184600F001F9CC
:10276C000CE07B681A683B681B681946104600F041
:10277C00F8F803E00123FB7300E000BF7B68012243
:10278C0083F83D207B68002283F83C20FB7B1846B5
:10279C001037BD4680BD80B483B000AF786000BFF9
:1027AC000C37BD4680BC704780B483B000AF7860F6
:1027BC0000BF0C37BD4680BC704780B483B000AFFF
:1027CC00786000BF0C37BD4680BC704780B483B0C6
:1027DC0000AF786000BF0C37BD4680BC704700006E
:1027EC0080B485B000AF786039607B681B68FB6093
:1027FC007B682B4A934207D07B68B3F1804F03D0A0
:10280C007B68284A934208D1FB6823F07003FB6075
:10281C003B685B68FA681343FB607B68204A934211
:10282C0007D07B68B3F1804F03D07B681D4A93427D
:10283C0008D1FB6823F44073FB603B68DB68FA68E3
:10284C001343FB60FB6823F080023B685B69134316
:10285C00FB607B68FA681A603B689A687B68DA628E
:10286C003B681A687B689A627B680D4A934203D175
:10287C003B681A697B681A637B6801225A617B6822
:10288C001B6903F00103002B05D07B681B6923F047
:10289C0001027B681A6100BF1437BD4680BC7047CB
:1028AC00002C01400004004080B487B000AFF860F9
:1028BC00B9607A60FB681B6A7B61FB681B6A23F05A
:1028CC000102FB681A62FB689B693B613B6923F060
:1028DC00F0033B617B681B013A6913433B617B69E5
:1028EC0023F00A037B617A69BB6813437B61FB6845
:1028FC003A699A61FB687A691A6200BF1C37BD4657
:10290C0080BC704780B487B000AFF860B9607A6063
:10291C00FB681B6A7B61FB681B6A23F01002FB6877
:10292C001A62FB689B693B613B6923F470433B6112
:10293C007B681B033A6913433B617B6923F0A0035B
:10294C007B61BB681B017A6913437B61FB683A6945
:10295C009A61FB687A691A6200BF1C37BD4680BC5D
:10296C00704780B485B000AF786039607B689B6835
:10297C00FB60FB6823F07003FB603A68FB68134351
:10298C0043F00703FB607B68FA689A6000BF14375A
:10299C00BD4680BC704780B487B000AFF860B960AA
:1029AC007A603B60FB689B687B617B6923F47F43A7
:1029BC007B613B681A027B681A43BB6813437A69D4
:1029CC0013437B61FB687A699A6000BF1C37BD4674
:1029DC0080BC704780B485B000AF786039607B688C
:1029EC0093F83C30012B01D1022341E07B6801229A
:1029FC0083F83C207B68022283F83D207B681B68AF
:102A0C005B68FB607B681B689B68BB60FB6823F0A2
:102A1C007003FB603B681B68FA681343FB607B68C0
:102A2C001B68FA685A607B681B68144A934209D089
:102A3C007B681B68B3F1804F04D07B681B68104A1D
:102A4C0093420CD1BB6823F08003BB603B685B688E
:102A5C00BA681343BB607B681B68BA689A607B6872
:102A6C00012283F83D207B68002283F83C20002360
:102A7C0018461437BD4680BC704700BF002C01407F
:102A8C000004004080B483B000AF786000BF0C3706
:102A9C00BD4680BC704780B483B000AF786000BF87
:102AAC000C37BD4680BC704703460244934200D1AC
:102ABC00704703F8011BF9E770B500260C4D0D4C5F
:102ACC00641BA410A64209D100F01AF800260A4D86
:102ADC000A4C641BA410A64205D170BD55F8043BEA
:102AEC0098470136EEE755F8043B98470136F2E774
:102AFC004C2B00084C2B00084C2B0008502B0008CA
:102B0C00F8B500BFF8BC08BC9E467047F8B500BFCE
:082B1C00F8BC08BC9E4670479E
:102B24000400000000000000000000000102030493
:102B34000607080902030405060708090A0B0C0D19
:082B44000E0F10100102000049
:042B4C00310100084B
:042B50000D0100086B
:102B54000100000002000000030000000400000067
:102B6400010000000100000001000000010000005D
:102B7400010000000100000001000000010000004D
:102B8400010000000100000001000000010000003D
:102B9400010000000100000001000000010000002D
:102BA400010000000100000001000000010000001D
:102BB400F401000005000000020000000300000012
:102BC40000127A000A00000010000000010000005A
:040000050800148D4E
:00000001FF
